{
  "_format": "hh-sol-artifact-1",
  "contractName": "NFT",
  "sourceName": "contracts/NFT.sol",
  "abi": [
    {
      "inputs": [],
      "stateMutability": "nonpayable",
      "type": "constructor"
    },
    {
      "anonymous": false,
      "inputs": [
        {
          "indexed": true,
          "internalType": "address",
          "name": "owner",
          "type": "address"
        },
        {
          "indexed": true,
          "internalType": "address",
          "name": "approved",
          "type": "address"
        },
        {
          "indexed": true,
          "internalType": "uint256",
          "name": "tokenId",
          "type": "uint256"
        }
      ],
      "name": "Approval",
      "type": "event"
    },
    {
      "anonymous": false,
      "inputs": [
        {
          "indexed": true,
          "internalType": "address",
          "name": "owner",
          "type": "address"
        },
        {
          "indexed": true,
          "internalType": "address",
          "name": "operator",
          "type": "address"
        },
        {
          "indexed": false,
          "internalType": "bool",
          "name": "approved",
          "type": "bool"
        }
      ],
      "name": "ApprovalForAll",
      "type": "event"
    },
    {
      "anonymous": false,
      "inputs": [
        {
          "indexed": true,
          "internalType": "uint256",
          "name": "tokenId",
          "type": "uint256"
        },
        {
          "indexed": false,
          "internalType": "string",
          "name": "tokenURI",
          "type": "string"
        }
      ],
      "name": "NFTMinted",
      "type": "event"
    },
    {
      "anonymous": false,
      "inputs": [
        {
          "indexed": true,
          "internalType": "address",
          "name": "from",
          "type": "address"
        },
        {
          "indexed": true,
          "internalType": "address",
          "name": "to",
          "type": "address"
        },
        {
          "indexed": true,
          "internalType": "uint256",
          "name": "tokenId",
          "type": "uint256"
        }
      ],
      "name": "Transfer",
      "type": "event"
    },
    {
      "inputs": [
        {
          "internalType": "address",
          "name": "to",
          "type": "address"
        },
        {
          "internalType": "uint256",
          "name": "tokenId",
          "type": "uint256"
        }
      ],
      "name": "approve",
      "outputs": [],
      "stateMutability": "nonpayable",
      "type": "function"
    },
    {
      "inputs": [
        {
          "internalType": "address",
          "name": "owner",
          "type": "address"
        }
      ],
      "name": "balanceOf",
      "outputs": [
        {
          "internalType": "uint256",
          "name": "",
          "type": "uint256"
        }
      ],
      "stateMutability": "view",
      "type": "function"
    },
    {
      "inputs": [
        {
          "internalType": "string",
          "name": "tokenURI",
          "type": "string"
        }
      ],
      "name": "createToken",
      "outputs": [
        {
          "internalType": "uint256",
          "name": "",
          "type": "uint256"
        }
      ],
      "stateMutability": "nonpayable",
      "type": "function"
    },
    {
      "inputs": [
        {
          "internalType": "string",
          "name": "tokenURI",
          "type": "string"
        },
        {
          "internalType": "address",
          "name": "destinationAddress",
          "type": "address"
        }
      ],
      "name": "createTokenOnBehalfOf",
      "outputs": [
        {
          "internalType": "uint256",
          "name": "",
          "type": "uint256"
        }
      ],
      "stateMutability": "nonpayable",
      "type": "function"
    },
    {
      "inputs": [
        {
          "internalType": "uint256",
          "name": "tokenId",
          "type": "uint256"
        }
      ],
      "name": "getApproved",
      "outputs": [
        {
          "internalType": "address",
          "name": "",
          "type": "address"
        }
      ],
      "stateMutability": "view",
      "type": "function"
    },
    {
      "inputs": [
        {
          "internalType": "address",
          "name": "owner",
          "type": "address"
        },
        {
          "internalType": "address",
          "name": "operator",
          "type": "address"
        }
      ],
      "name": "isApprovedForAll",
      "outputs": [
        {
          "internalType": "bool",
          "name": "",
          "type": "bool"
        }
      ],
      "stateMutability": "view",
      "type": "function"
    },
    {
      "inputs": [],
      "name": "name",
      "outputs": [
        {
          "internalType": "string",
          "name": "",
          "type": "string"
        }
      ],
      "stateMutability": "view",
      "type": "function"
    },
    {
      "inputs": [
        {
          "internalType": "uint256",
          "name": "tokenId",
          "type": "uint256"
        }
      ],
      "name": "ownerOf",
      "outputs": [
        {
          "internalType": "address",
          "name": "",
          "type": "address"
        }
      ],
      "stateMutability": "view",
      "type": "function"
    },
    {
      "inputs": [
        {
          "internalType": "address",
          "name": "from",
          "type": "address"
        },
        {
          "internalType": "address",
          "name": "to",
          "type": "address"
        },
        {
          "internalType": "uint256",
          "name": "tokenId",
          "type": "uint256"
        }
      ],
      "name": "safeTransferFrom",
      "outputs": [],
      "stateMutability": "nonpayable",
      "type": "function"
    },
    {
      "inputs": [
        {
          "internalType": "address",
          "name": "from",
          "type": "address"
        },
        {
          "internalType": "address",
          "name": "to",
          "type": "address"
        },
        {
          "internalType": "uint256",
          "name": "tokenId",
          "type": "uint256"
        },
        {
          "internalType": "bytes",
          "name": "data",
          "type": "bytes"
        }
      ],
      "name": "safeTransferFrom",
      "outputs": [],
      "stateMutability": "nonpayable",
      "type": "function"
    },
    {
      "inputs": [
        {
          "internalType": "address",
          "name": "operator",
          "type": "address"
        },
        {
          "internalType": "bool",
          "name": "approved",
          "type": "bool"
        }
      ],
      "name": "setApprovalForAll",
      "outputs": [],
      "stateMutability": "nonpayable",
      "type": "function"
    },
    {
      "inputs": [
        {
          "internalType": "bytes4",
          "name": "interfaceId",
          "type": "bytes4"
        }
      ],
      "name": "supportsInterface",
      "outputs": [
        {
          "internalType": "bool",
          "name": "",
          "type": "bool"
        }
      ],
      "stateMutability": "view",
      "type": "function"
    },
    {
      "inputs": [],
      "name": "symbol",
      "outputs": [
        {
          "internalType": "string",
          "name": "",
          "type": "string"
        }
      ],
      "stateMutability": "view",
      "type": "function"
    },
    {
      "inputs": [
        {
          "internalType": "uint256",
          "name": "tokenId",
          "type": "uint256"
        }
      ],
      "name": "tokenURI",
      "outputs": [
        {
          "internalType": "string",
          "name": "",
          "type": "string"
        }
      ],
      "stateMutability": "view",
      "type": "function"
    },
    {
      "inputs": [
        {
          "internalType": "address",
          "name": "from",
          "type": "address"
        },
        {
          "internalType": "address",
          "name": "to",
          "type": "address"
        },
        {
          "internalType": "uint256",
          "name": "tokenId",
          "type": "uint256"
        }
      ],
      "name": "transferFrom",
      "outputs": [],
      "stateMutability": "nonpayable",
      "type": "function"
    }
  ],
  "bytecode": "0x60806040523480156200001157600080fd5b50604080518082018252600c81526b151bd9d95d1a195c8813919560a21b60208083019182528351808501909452600b84526a1513d1d15512115493919560aa1b908401528151919291620000699160009162000088565b5080516200007f90600190602084019062000088565b5050506200016b565b82805462000096906200012e565b90600052602060002090601f016020900481019282620000ba576000855562000105565b82601f10620000d557805160ff191683800117855562000105565b8280016001018555821562000105579182015b8281111562000105578251825591602001919060010190620000e8565b506200011392915062000117565b5090565b5b8082111562000113576000815560010162000118565b600181811c908216806200014357607f821691505b602082108114156200016557634e487b7160e01b600052602260045260246000fd5b50919050565b611751806200017b6000396000f3fe608060405234801561001057600080fd5b50600436106100f55760003560e01c80636352211e11610097578063a22cb46511610066578063a22cb465146101ff578063b88d4fde14610212578063c87b56dd14610225578063e985e9c51461023857600080fd5b80636352211e146101be57806370a08231146101d157806395d89b41146101e457806399531316146101ec57600080fd5b8063095ea7b3116100d3578063095ea7b31461016257806323b872dd1461017757806342842e0e1461018a57806345576f941461019d57600080fd5b806301ffc9a7146100fa57806306fdde0314610122578063081812fc14610137575b600080fd5b61010d6101083660046113ee565b610274565b60405190151581526020015b60405180910390f35b61012a6102c6565b604051610119919061154c565b61014a61014536600461149c565b610358565b6040516001600160a01b039091168152602001610119565b6101756101703660046113c5565b61037f565b005b6101756101853660046112d7565b61049a565b6101756101983660046112d7565b6104cb565b6101b06101ab366004611426565b6104e6565b604051908152602001610119565b61014a6101cc36600461149c565b6104f2565b6101b06101df36600461128b565b610552565b61012a6105d8565b6101b06101fa366004611459565b6105e7565b61017561020d36600461138b565b6105fa565b610175610220366004611312565b610609565b61012a61023336600461149c565b610641565b61010d6102463660046112a5565b6001600160a01b03918216600090815260056020908152604080832093909416825291909152205460ff1690565b60006001600160e01b031982166380ac58cd60e01b14806102a557506001600160e01b03198216635b5e139f60e01b145b806102c057506301ffc9a760e01b6001600160e01b03198316145b92915050565b6060600080546102d59061169e565b80601f01602080910402602001604051908101604052809291908181526020018280546103019061169e565b801561034e5780601f106103235761010080835404028352916020019161034e565b820191906000526020600020905b81548152906001019060200180831161033157829003601f168201915b5050505050905090565b600061036382610752565b506000908152600460205260409020546001600160a01b031690565b600061038a826104f2565b9050806001600160a01b0316836001600160a01b031614156103fd5760405162461bcd60e51b815260206004820152602160248201527f4552433732313a20617070726f76616c20746f2063757272656e74206f776e656044820152603960f91b60648201526084015b60405180910390fd5b336001600160a01b038216148061041957506104198133610246565b61048b5760405162461bcd60e51b815260206004820152603d60248201527f4552433732313a20617070726f76652063616c6c6572206973206e6f7420746f60448201527f6b656e206f776e6572206f7220617070726f76656420666f7220616c6c00000060648201526084016103f4565b61049583836107b4565b505050565b6104a43382610822565b6104c05760405162461bcd60e51b81526004016103f49061155f565b6104958383836108a0565b61049583838360405180602001604052806000815250610609565b60006102c08233610a11565b6000818152600260205260408120546001600160a01b0316806102c05760405162461bcd60e51b8152602060048201526018602482015277115490cdcc8c4e881a5b9d985b1a59081d1bdad95b88125160421b60448201526064016103f4565b60006001600160a01b0382166105bc5760405162461bcd60e51b815260206004820152602960248201527f4552433732313a2061646472657373207a65726f206973206e6f7420612076616044820152683634b21037bbb732b960b91b60648201526084016103f4565b506001600160a01b031660009081526003602052604090205490565b6060600180546102d59061169e565b60006105f38383610a11565b9392505050565b610605338383610a81565b5050565b6106133383610822565b61062f5760405162461bcd60e51b81526004016103f49061155f565b61063b84848484610b50565b50505050565b606061064c82610752565b600082815260066020526040812080546106659061169e565b80601f01602080910402602001604051908101604052809291908181526020018280546106919061169e565b80156106de5780601f106106b3576101008083540402835291602001916106de565b820191906000526020600020905b8154815290600101906020018083116106c157829003601f168201915b5050505050905060006106fc60408051602081019091526000815290565b905080516000141561070f575092915050565b8151156107415780826040516020016107299291906114e0565b60405160208183030381529060405292505050919050565b61074a84610b83565b949350505050565b6000818152600260205260409020546001600160a01b03166107b15760405162461bcd60e51b8152602060048201526018602482015277115490cdcc8c4e881a5b9d985b1a59081d1bdad95b88125160421b60448201526064016103f4565b50565b600081815260046020526040902080546001600160a01b0319166001600160a01b03841690811790915581906107e9826104f2565b6001600160a01b03167f8c5be1e5ebec7d5bd14f71427d1e84f3dd0314c0f7b2291e5b200ac8c7c3b92560405160405180910390a45050565b60008061082e836104f2565b9050806001600160a01b0316846001600160a01b0316148061087557506001600160a01b0380821660009081526005602090815260408083209388168352929052205460ff165b8061074a5750836001600160a01b031661088e84610358565b6001600160a01b031614949350505050565b826001600160a01b03166108b3826104f2565b6001600160a01b0316146108d95760405162461bcd60e51b81526004016103f4906115fe565b6001600160a01b03821661093b5760405162461bcd60e51b8152602060048201526024808201527f4552433732313a207472616e7366657220746f20746865207a65726f206164646044820152637265737360e01b60648201526084016103f4565b6109488383836001610bf6565b826001600160a01b031661095b826104f2565b6001600160a01b0316146109815760405162461bcd60e51b81526004016103f4906115fe565b600081815260046020908152604080832080546001600160a01b03199081169091556001600160a01b0387811680865260038552838620805460001901905590871680865283862080546001019055868652600290945282852080549092168417909155905184937fddf252ad1be2c89b69c2b068fc378daa952ba7f163c4a11628f55a4df523b3ef91a4505050565b6000610a21600780546001019055565b6000610a2c60075490565b9050610a388382610c7e565b610a428185610e17565b807f9e0bfaf38878aad3ebd19b8c8065288eb130f0499a7378363d4652515588ac9685604051610a72919061154c565b60405180910390a29392505050565b816001600160a01b0316836001600160a01b03161415610ae35760405162461bcd60e51b815260206004820152601960248201527f4552433732313a20617070726f766520746f2063616c6c65720000000000000060448201526064016103f4565b6001600160a01b03838116600081815260056020908152604080832094871680845294825291829020805460ff191686151590811790915591519182527f17307eab39ab6107e8899845ad3d59bd9653f200f220920489ca2b5937696c31910160405180910390a3505050565b610b5b8484846108a0565b610b6784848484610eb1565b61063b5760405162461bcd60e51b81526004016103f4906115ac565b6060610b8e82610752565b6000610ba560408051602081019091526000815290565b90506000815111610bc557604051806020016040528060008152506105f3565b80610bcf84610fbe565b604051602001610be09291906114e0565b6040516020818303038152906040529392505050565b600181111561063b576001600160a01b03841615610c3c576001600160a01b03841660009081526003602052604081208054839290610c3690849061165b565b90915550505b6001600160a01b0383161561063b576001600160a01b03831660009081526003602052604081208054839290610c73908490611643565b909155505050505050565b6001600160a01b038216610cd45760405162461bcd60e51b815260206004820181905260248201527f4552433732313a206d696e7420746f20746865207a65726f206164647265737360448201526064016103f4565b6000818152600260205260409020546001600160a01b031615610d395760405162461bcd60e51b815260206004820152601c60248201527f4552433732313a20746f6b656e20616c7265616479206d696e7465640000000060448201526064016103f4565b610d47600083836001610bf6565b6000818152600260205260409020546001600160a01b031615610dac5760405162461bcd60e51b815260206004820152601c60248201527f4552433732313a20746f6b656e20616c7265616479206d696e7465640000000060448201526064016103f4565b6001600160a01b038216600081815260036020908152604080832080546001019055848352600290915280822080546001600160a01b0319168417905551839291907fddf252ad1be2c89b69c2b068fc378daa952ba7f163c4a11628f55a4df523b3ef908290a45050565b6000828152600260205260409020546001600160a01b0316610e925760405162461bcd60e51b815260206004820152602e60248201527f45524337323155524953746f726167653a2055524920736574206f66206e6f6e60448201526d32bc34b9ba32b73a103a37b5b2b760911b60648201526084016103f4565b6000828152600660209081526040909120825161049592840190611141565b60006001600160a01b0384163b15610fb357604051630a85bd0160e11b81526001600160a01b0385169063150b7a0290610ef590339089908890889060040161150f565b602060405180830381600087803b158015610f0f57600080fd5b505af1925050508015610f3f575060408051601f3d908101601f19168201909252610f3c9181019061140a565b60015b610f99573d808015610f6d576040519150601f19603f3d011682016040523d82523d6000602084013e610f72565b606091505b508051610f915760405162461bcd60e51b81526004016103f4906115ac565b805181602001fd5b6001600160e01b031916630a85bd0160e11b14905061074a565b506001949350505050565b60606000610fcb83611069565b600101905060008167ffffffffffffffff811115610ff957634e487b7160e01b600052604160045260246000fd5b6040519080825280601f01601f191660200182016040528015611023576020820181803683370190505b5090508181016020015b600019016f181899199a1a9b1b9c1cb0b131b232b360811b600a86061a8153600a850494508461105c57611061565b61102d565b509392505050565b60008072184f03e93ff9f4daa797ed6e38ed64bf6a1f0160401b83106110a85772184f03e93ff9f4daa797ed6e38ed64bf6a1f0160401b830492506040015b6d04ee2d6d415b85acef810000000083106110d4576d04ee2d6d415b85acef8100000000830492506020015b662386f26fc1000083106110f257662386f26fc10000830492506010015b6305f5e100831061110a576305f5e100830492506008015b612710831061111e57612710830492506004015b60648310611130576064830492506002015b600a83106102c05760010192915050565b82805461114d9061169e565b90600052602060002090601f01602090048101928261116f57600085556111b5565b82601f1061118857805160ff19168380011785556111b5565b828001600101855582156111b5579182015b828111156111b557825182559160200191906001019061119a565b506111c19291506111c5565b5090565b5b808211156111c157600081556001016111c6565b600067ffffffffffffffff808411156111f5576111f56116ef565b604051601f8501601f19908116603f0116810190828211818310171561121d5761121d6116ef565b8160405280935085815286868601111561123657600080fd5b858560208301376000602087830101525050509392505050565b80356001600160a01b038116811461126757600080fd5b919050565b600082601f83011261127c578081fd5b6105f3838335602085016111da565b60006020828403121561129c578081fd5b6105f382611250565b600080604083850312156112b7578081fd5b6112c083611250565b91506112ce60208401611250565b90509250929050565b6000806000606084860312156112eb578081fd5b6112f484611250565b925061130260208501611250565b9150604084013590509250925092565b60008060008060808587031215611327578081fd5b61133085611250565b935061133e60208601611250565b925060408501359150606085013567ffffffffffffffff811115611360578182fd5b8501601f81018713611370578182fd5b61137f878235602084016111da565b91505092959194509250565b6000806040838503121561139d578182fd5b6113a683611250565b9150602083013580151581146113ba578182fd5b809150509250929050565b600080604083850312156113d7578182fd5b6113e083611250565b946020939093013593505050565b6000602082840312156113ff578081fd5b81356105f381611705565b60006020828403121561141b578081fd5b81516105f381611705565b600060208284031215611437578081fd5b813567ffffffffffffffff81111561144d578182fd5b61074a8482850161126c565b6000806040838503121561146b578182fd5b823567ffffffffffffffff811115611481578283fd5b61148d8582860161126c565b9250506112ce60208401611250565b6000602082840312156114ad578081fd5b5035919050565b600081518084526114cc816020860160208601611672565b601f01601f19169290920160200192915050565b600083516114f2818460208801611672565b835190830190611506818360208801611672565b01949350505050565b6001600160a01b0385811682528416602082015260408101839052608060608201819052600090611542908301846114b4565b9695505050505050565b6020815260006105f360208301846114b4565b6020808252602d908201527f4552433732313a2063616c6c6572206973206e6f7420746f6b656e206f776e6560408201526c1c881bdc88185c1c1c9bdd9959609a1b606082015260800190565b60208082526032908201527f4552433732313a207472616e7366657220746f206e6f6e20455243373231526560408201527131b2b4bb32b91034b6b83632b6b2b73a32b960711b606082015260800190565b60208082526025908201527f4552433732313a207472616e736665722066726f6d20696e636f72726563742060408201526437bbb732b960d91b606082015260800190565b60008219821115611656576116566116d9565b500190565b60008282101561166d5761166d6116d9565b500390565b60005b8381101561168d578181015183820152602001611675565b8381111561063b5750506000910152565b600181811c908216806116b257607f821691505b602082108114156116d357634e487b7160e01b600052602260045260246000fd5b50919050565b634e487b7160e01b600052601160045260246000fd5b634e487b7160e01b600052604160045260246000fd5b6001600160e01b0319811681146107b157600080fdfea26469706673582212206d76430633bcc54bdfbca8898e1669ab7f5ae9fe52979c5a0c7d76b5e540415664736f6c63430008040033",
  "linkReferences": {},
  "deployedLinkReferences": {}
}