{
  "_format": "hh-sol-artifact-1",
  "contractName": "ERC4907",
  "sourceName": "contracts/ERC4907.sol",
  "abi": [
    {
      "inputs": [
        {
          "internalType": "string",
          "name": "name_",
          "type": "string"
        },
        {
          "internalType": "string",
          "name": "symbol_",
          "type": "string"
        }
      ],
      "stateMutability": "nonpayable",
      "type": "constructor"
    },
    {
      "anonymous": false,
      "inputs": [
        {
          "indexed": true,
          "internalType": "address",
          "name": "owner",
          "type": "address"
        },
        {
          "indexed": true,
          "internalType": "address",
          "name": "approved",
          "type": "address"
        },
        {
          "indexed": true,
          "internalType": "uint256",
          "name": "tokenId",
          "type": "uint256"
        }
      ],
      "name": "Approval",
      "type": "event"
    },
    {
      "anonymous": false,
      "inputs": [
        {
          "indexed": true,
          "internalType": "address",
          "name": "owner",
          "type": "address"
        },
        {
          "indexed": true,
          "internalType": "address",
          "name": "operator",
          "type": "address"
        },
        {
          "indexed": false,
          "internalType": "bool",
          "name": "approved",
          "type": "bool"
        }
      ],
      "name": "ApprovalForAll",
      "type": "event"
    },
    {
      "anonymous": false,
      "inputs": [
        {
          "indexed": true,
          "internalType": "address",
          "name": "from",
          "type": "address"
        },
        {
          "indexed": true,
          "internalType": "address",
          "name": "to",
          "type": "address"
        },
        {
          "indexed": true,
          "internalType": "uint256",
          "name": "tokenId",
          "type": "uint256"
        }
      ],
      "name": "Transfer",
      "type": "event"
    },
    {
      "anonymous": false,
      "inputs": [
        {
          "indexed": true,
          "internalType": "uint256",
          "name": "tokenId",
          "type": "uint256"
        },
        {
          "indexed": true,
          "internalType": "address",
          "name": "user",
          "type": "address"
        },
        {
          "indexed": false,
          "internalType": "uint64",
          "name": "expires",
          "type": "uint64"
        }
      ],
      "name": "UpdateUser",
      "type": "event"
    },
    {
      "inputs": [
        {
          "internalType": "address",
          "name": "to",
          "type": "address"
        },
        {
          "internalType": "uint256",
          "name": "tokenId",
          "type": "uint256"
        }
      ],
      "name": "approve",
      "outputs": [],
      "stateMutability": "nonpayable",
      "type": "function"
    },
    {
      "inputs": [
        {
          "internalType": "address",
          "name": "owner",
          "type": "address"
        }
      ],
      "name": "balanceOf",
      "outputs": [
        {
          "internalType": "uint256",
          "name": "",
          "type": "uint256"
        }
      ],
      "stateMutability": "view",
      "type": "function"
    },
    {
      "inputs": [
        {
          "internalType": "uint256",
          "name": "tokenId",
          "type": "uint256"
        }
      ],
      "name": "getApproved",
      "outputs": [
        {
          "internalType": "address",
          "name": "",
          "type": "address"
        }
      ],
      "stateMutability": "view",
      "type": "function"
    },
    {
      "inputs": [
        {
          "internalType": "address",
          "name": "owner",
          "type": "address"
        },
        {
          "internalType": "address",
          "name": "operator",
          "type": "address"
        }
      ],
      "name": "isApprovedForAll",
      "outputs": [
        {
          "internalType": "bool",
          "name": "",
          "type": "bool"
        }
      ],
      "stateMutability": "view",
      "type": "function"
    },
    {
      "inputs": [],
      "name": "name",
      "outputs": [
        {
          "internalType": "string",
          "name": "",
          "type": "string"
        }
      ],
      "stateMutability": "view",
      "type": "function"
    },
    {
      "inputs": [
        {
          "internalType": "uint256",
          "name": "tokenId",
          "type": "uint256"
        }
      ],
      "name": "ownerOf",
      "outputs": [
        {
          "internalType": "address",
          "name": "",
          "type": "address"
        }
      ],
      "stateMutability": "view",
      "type": "function"
    },
    {
      "inputs": [
        {
          "internalType": "address",
          "name": "from",
          "type": "address"
        },
        {
          "internalType": "address",
          "name": "to",
          "type": "address"
        },
        {
          "internalType": "uint256",
          "name": "tokenId",
          "type": "uint256"
        }
      ],
      "name": "safeTransferFrom",
      "outputs": [],
      "stateMutability": "nonpayable",
      "type": "function"
    },
    {
      "inputs": [
        {
          "internalType": "address",
          "name": "from",
          "type": "address"
        },
        {
          "internalType": "address",
          "name": "to",
          "type": "address"
        },
        {
          "internalType": "uint256",
          "name": "tokenId",
          "type": "uint256"
        },
        {
          "internalType": "bytes",
          "name": "data",
          "type": "bytes"
        }
      ],
      "name": "safeTransferFrom",
      "outputs": [],
      "stateMutability": "nonpayable",
      "type": "function"
    },
    {
      "inputs": [
        {
          "internalType": "address",
          "name": "operator",
          "type": "address"
        },
        {
          "internalType": "bool",
          "name": "approved",
          "type": "bool"
        }
      ],
      "name": "setApprovalForAll",
      "outputs": [],
      "stateMutability": "nonpayable",
      "type": "function"
    },
    {
      "inputs": [
        {
          "internalType": "uint256",
          "name": "tokenId",
          "type": "uint256"
        },
        {
          "internalType": "address",
          "name": "user",
          "type": "address"
        },
        {
          "internalType": "uint64",
          "name": "expires",
          "type": "uint64"
        }
      ],
      "name": "setUser",
      "outputs": [],
      "stateMutability": "nonpayable",
      "type": "function"
    },
    {
      "inputs": [
        {
          "internalType": "bytes4",
          "name": "interfaceId",
          "type": "bytes4"
        }
      ],
      "name": "supportsInterface",
      "outputs": [
        {
          "internalType": "bool",
          "name": "",
          "type": "bool"
        }
      ],
      "stateMutability": "view",
      "type": "function"
    },
    {
      "inputs": [],
      "name": "symbol",
      "outputs": [
        {
          "internalType": "string",
          "name": "",
          "type": "string"
        }
      ],
      "stateMutability": "view",
      "type": "function"
    },
    {
      "inputs": [
        {
          "internalType": "uint256",
          "name": "tokenId",
          "type": "uint256"
        }
      ],
      "name": "tokenURI",
      "outputs": [
        {
          "internalType": "string",
          "name": "",
          "type": "string"
        }
      ],
      "stateMutability": "view",
      "type": "function"
    },
    {
      "inputs": [
        {
          "internalType": "address",
          "name": "from",
          "type": "address"
        },
        {
          "internalType": "address",
          "name": "to",
          "type": "address"
        },
        {
          "internalType": "uint256",
          "name": "tokenId",
          "type": "uint256"
        }
      ],
      "name": "transferFrom",
      "outputs": [],
      "stateMutability": "nonpayable",
      "type": "function"
    },
    {
      "inputs": [
        {
          "internalType": "uint256",
          "name": "tokenId",
          "type": "uint256"
        }
      ],
      "name": "userExpires",
      "outputs": [
        {
          "internalType": "uint256",
          "name": "",
          "type": "uint256"
        }
      ],
      "stateMutability": "view",
      "type": "function"
    },
    {
      "inputs": [
        {
          "internalType": "uint256",
          "name": "tokenId",
          "type": "uint256"
        }
      ],
      "name": "userOf",
      "outputs": [
        {
          "internalType": "address",
          "name": "",
          "type": "address"
        }
      ],
      "stateMutability": "view",
      "type": "function"
    }
  ],
  "bytecode": "0x60806040523480156200001157600080fd5b506040516200185c3803806200185c8339810160408190526200003491620001c7565b8151829082906200004d9060009060208501906200006e565b508051620000639060019060208401906200006e565b505050505062000281565b8280546200007c906200022e565b90600052602060002090601f016020900481019282620000a05760008555620000eb565b82601f10620000bb57805160ff1916838001178555620000eb565b82800160010185558215620000eb579182015b82811115620000eb578251825591602001919060010190620000ce565b50620000f9929150620000fd565b5090565b5b80821115620000f95760008155600101620000fe565b600082601f83011262000125578081fd5b81516001600160401b03808211156200014257620001426200026b565b604051601f8301601f19908116603f011681019082821181831017156200016d576200016d6200026b565b8160405283815260209250868385880101111562000189578485fd5b8491505b83821015620001ac57858201830151818301840152908201906200018d565b83821115620001bd57848385830101525b9695505050505050565b60008060408385031215620001da578182fd5b82516001600160401b0380821115620001f1578384fd5b620001ff8683870162000114565b9350602085015191508082111562000215578283fd5b50620002248582860162000114565b9150509250929050565b600181811c908216806200024357607f821691505b602082108114156200026557634e487b7160e01b600052602260045260246000fd5b50919050565b634e487b7160e01b600052604160045260246000fd5b6115cb80620002916000396000f3fe608060405234801561001057600080fd5b50600436106101005760003560e01c80638fc88c4811610097578063c2f1f14a11610066578063c2f1f14a1461023b578063c87b56dd1461024e578063e030565e14610261578063e985e9c51461027457600080fd5b80638fc88c48146101dc57806395d89b411461020d578063a22cb46514610215578063b88d4fde1461022857600080fd5b806323b872dd116100d357806323b872dd1461018257806342842e0e146101955780636352211e146101a857806370a08231146101bb57600080fd5b806301ffc9a71461010557806306fdde031461012d578063081812fc14610142578063095ea7b31461016d575b600080fd5b610118610113366004611293565b6102b0565b60405190151581526020015b60405180910390f35b6101356102db565b60405161012491906113c6565b6101556101503660046112cb565b61036d565b6040516001600160a01b039091168152602001610124565b61018061017b36600461126a565b610394565b005b610180610190366004611120565b6104af565b6101806101a3366004611120565b6104e0565b6101556101b63660046112cb565b6104fb565b6101ce6101c93660046110d4565b61055b565b604051908152602001610124565b6101ce6101ea3660046112cb565b600090815260076020526040902054600160a01b900467ffffffffffffffff1690565b6101356105e1565b610180610223366004611230565b6105f0565b61018061023636600461115b565b6105ff565b6101556102493660046112cb565b610637565b61013561025c3660046112cb565b610687565b61018061026f3660046112e3565b610798565b6101186102823660046110ee565b6001600160a01b03918216600090815260056020908152604080832093909416825291909152205460ff1690565b60006001600160e01b03198216632b424ad760e21b14806102d557506102d58261088a565b92915050565b6060600080546102ea90611518565b80601f016020809104026020016040519081016040528092919081815260200182805461031690611518565b80156103635780601f1061033857610100808354040283529160200191610363565b820191906000526020600020905b81548152906001019060200180831161034657829003601f168201915b5050505050905090565b6000610378826108da565b506000908152600460205260409020546001600160a01b031690565b600061039f826104fb565b9050806001600160a01b0316836001600160a01b031614156104125760405162461bcd60e51b815260206004820152602160248201527f4552433732313a20617070726f76616c20746f2063757272656e74206f776e656044820152603960f91b60648201526084015b60405180910390fd5b336001600160a01b038216148061042e575061042e8133610282565b6104a05760405162461bcd60e51b815260206004820152603d60248201527f4552433732313a20617070726f76652063616c6c6572206973206e6f7420746f60448201527f6b656e206f776e6572206f7220617070726f76656420666f7220616c6c0000006064820152608401610409565b6104aa838361093c565b505050565b6104b933826109aa565b6104d55760405162461bcd60e51b8152600401610409906113d9565b6104aa838383610a28565b6104aa838383604051806020016040528060008152506105ff565b6000818152600260205260408120546001600160a01b0316806102d55760405162461bcd60e51b8152602060048201526018602482015277115490cdcc8c4e881a5b9d985b1a59081d1bdad95b88125160421b6044820152606401610409565b60006001600160a01b0382166105c55760405162461bcd60e51b815260206004820152602960248201527f4552433732313a2061646472657373207a65726f206973206e6f7420612076616044820152683634b21037bbb732b960b91b6064820152608401610409565b506001600160a01b031660009081526003602052604090205490565b6060600180546102ea90611518565b6105fb338383610b99565b5050565b61060933836109aa565b6106255760405162461bcd60e51b8152600401610409906113d9565b61063184848484610c68565b50505050565b60008181526007602052604081205442600160a01b90910467ffffffffffffffff161061067a57506000908152600760205260409020546001600160a01b031690565b506000919050565b919050565b6060610692826108da565b600082815260066020526040812080546106ab90611518565b80601f01602080910402602001604051908101604052809291908181526020018280546106d790611518565b80156107245780601f106106f957610100808354040283529160200191610724565b820191906000526020600020905b81548152906001019060200180831161070757829003601f168201915b50505050509050600061074260408051602081019091526000815290565b9050805160001415610755575092915050565b81511561078757808260405160200161076f92919061135a565b60405160208183030381529060405292505050919050565b61079084610c9b565b949350505050565b6107a233846109aa565b6108085760405162461bcd60e51b815260206004820152603160248201527f4552433732313a207472616e736665722063616c6c6572206973206e6f74206f6044820152701ddb995c881b9bdc88185c1c1c9bdd9959607a1b6064820152608401610409565b60008381526007602090815260409182902080546001600160a01b0386166001600160e01b03199091168117600160a01b67ffffffffffffffff871690810291909117835593519384529092909186917f4e06b4e7000e659094299b3533b47b6aa8ad048e95e872d23d1f4ee55af89cfe91015b60405180910390a350505050565b60006001600160e01b031982166380ac58cd60e01b14806108bb57506001600160e01b03198216635b5e139f60e01b145b806102d557506301ffc9a760e01b6001600160e01b03198316146102d5565b6000818152600260205260409020546001600160a01b03166109395760405162461bcd60e51b8152602060048201526018602482015277115490cdcc8c4e881a5b9d985b1a59081d1bdad95b88125160421b6044820152606401610409565b50565b600081815260046020526040902080546001600160a01b0319166001600160a01b0384169081179091558190610971826104fb565b6001600160a01b03167f8c5be1e5ebec7d5bd14f71427d1e84f3dd0314c0f7b2291e5b200ac8c7c3b92560405160405180910390a45050565b6000806109b6836104fb565b9050806001600160a01b0316846001600160a01b031614806109fd57506001600160a01b0380821660009081526005602090815260408083209388168352929052205460ff165b806107905750836001600160a01b0316610a168461036d565b6001600160a01b031614949350505050565b826001600160a01b0316610a3b826104fb565b6001600160a01b031614610a615760405162461bcd60e51b815260040161040990611478565b6001600160a01b038216610ac35760405162461bcd60e51b8152602060048201526024808201527f4552433732313a207472616e7366657220746f20746865207a65726f206164646044820152637265737360e01b6064820152608401610409565b610ad08383836001610d0f565b826001600160a01b0316610ae3826104fb565b6001600160a01b031614610b095760405162461bcd60e51b815260040161040990611478565b600081815260046020908152604080832080546001600160a01b03199081169091556001600160a01b0387811680865260038552838620805460001901905590871680865283862080546001019055868652600290945282852080549092168417909155905184937fddf252ad1be2c89b69c2b068fc378daa952ba7f163c4a11628f55a4df523b3ef91a4505050565b816001600160a01b0316836001600160a01b03161415610bfb5760405162461bcd60e51b815260206004820152601960248201527f4552433732313a20617070726f766520746f2063616c6c6572000000000000006044820152606401610409565b6001600160a01b03838116600081815260056020908152604080832094871680845294825291829020805460ff191686151590811790915591519182527f17307eab39ab6107e8899845ad3d59bd9653f200f220920489ca2b5937696c31910160405180910390a3505050565b610c73848484610a28565b610c7f84848484610da5565b6106315760405162461bcd60e51b815260040161040990611426565b6060610ca6826108da565b6000610cbd60408051602081019091526000815290565b90506000815111610cdd5760405180602001604052806000815250610d08565b80610ce784610eb2565b604051602001610cf892919061135a565b6040516020818303038152906040525b9392505050565b610d1b84848484610f5d565b826001600160a01b0316846001600160a01b031614158015610d5357506000828152600760205260409020546001600160a01b031615155b1561063157600082815260076020908152604080832080546001600160e01b03191690555182815284917f4e06b4e7000e659094299b3533b47b6aa8ad048e95e872d23d1f4ee55af89cfe910161087c565b60006001600160a01b0384163b15610ea757604051630a85bd0160e11b81526001600160a01b0385169063150b7a0290610de9903390899088908890600401611389565b602060405180830381600087803b158015610e0357600080fd5b505af1925050508015610e33575060408051601f3d908101601f19168201909252610e30918101906112af565b60015b610e8d573d808015610e61576040519150601f19603f3d011682016040523d82523d6000602084013e610e66565b606091505b508051610e855760405162461bcd60e51b815260040161040990611426565b805181602001fd5b6001600160e01b031916630a85bd0160e11b149050610790565b506001949350505050565b60606000610ebf83610fe5565b600101905060008167ffffffffffffffff811115610eed57634e487b7160e01b600052604160045260246000fd5b6040519080825280601f01601f191660200182016040528015610f17576020820181803683370190505b5090508181016020015b600019016f181899199a1a9b1b9c1cb0b131b232b360811b600a86061a8153600a8504945084610f5057610f55565b610f21565b509392505050565b6001811115610631576001600160a01b03841615610fa3576001600160a01b03841660009081526003602052604081208054839290610f9d9084906114d5565b90915550505b6001600160a01b03831615610631576001600160a01b03831660009081526003602052604081208054839290610fda9084906114bd565b909155505050505050565b60008072184f03e93ff9f4daa797ed6e38ed64bf6a1f0160401b83106110245772184f03e93ff9f4daa797ed6e38ed64bf6a1f0160401b830492506040015b6d04ee2d6d415b85acef81000000008310611050576d04ee2d6d415b85acef8100000000830492506020015b662386f26fc10000831061106e57662386f26fc10000830492506010015b6305f5e1008310611086576305f5e100830492506008015b612710831061109a57612710830492506004015b606483106110ac576064830492506002015b600a83106102d55760010192915050565b80356001600160a01b038116811461068257600080fd5b6000602082840312156110e5578081fd5b610d08826110bd565b60008060408385031215611100578081fd5b611109836110bd565b9150611117602084016110bd565b90509250929050565b600080600060608486031215611134578081fd5b61113d846110bd565b925061114b602085016110bd565b9150604084013590509250925092565b60008060008060808587031215611170578081fd5b611179856110bd565b9350611187602086016110bd565b925060408501359150606085013567ffffffffffffffff808211156111aa578283fd5b818701915087601f8301126111bd578283fd5b8135818111156111cf576111cf611569565b604051601f8201601f19908116603f011681019083821181831017156111f7576111f7611569565b816040528281528a602084870101111561120f578586fd5b82602086016020830137918201602001949094529598949750929550505050565b60008060408385031215611242578182fd5b61124b836110bd565b91506020830135801515811461125f578182fd5b809150509250929050565b6000806040838503121561127c578182fd5b611285836110bd565b946020939093013593505050565b6000602082840312156112a4578081fd5b8135610d088161157f565b6000602082840312156112c0578081fd5b8151610d088161157f565b6000602082840312156112dc578081fd5b5035919050565b6000806000606084860312156112f7578283fd5b83359250611307602085016110bd565b9150604084013567ffffffffffffffff81168114611323578182fd5b809150509250925092565b600081518084526113468160208601602086016114ec565b601f01601f19169290920160200192915050565b6000835161136c8184602088016114ec565b8351908301906113808183602088016114ec565b01949350505050565b6001600160a01b03858116825284166020820152604081018390526080606082018190526000906113bc9083018461132e565b9695505050505050565b602081526000610d08602083018461132e565b6020808252602d908201527f4552433732313a2063616c6c6572206973206e6f7420746f6b656e206f776e6560408201526c1c881bdc88185c1c1c9bdd9959609a1b606082015260800190565b60208082526032908201527f4552433732313a207472616e7366657220746f206e6f6e20455243373231526560408201527131b2b4bb32b91034b6b83632b6b2b73a32b960711b606082015260800190565b60208082526025908201527f4552433732313a207472616e736665722066726f6d20696e636f72726563742060408201526437bbb732b960d91b606082015260800190565b600082198211156114d0576114d0611553565b500190565b6000828210156114e7576114e7611553565b500390565b60005b838110156115075781810151838201526020016114ef565b838111156106315750506000910152565b600181811c9082168061152c57607f821691505b6020821081141561154d57634e487b7160e01b600052602260045260246000fd5b50919050565b634e487b7160e01b600052601160045260246000fd5b634e487b7160e01b600052604160045260246000fd5b6001600160e01b03198116811461093957600080fdfea2646970667358221220dd7c26575a4791d198eb6923f02d5a71c811337aec9f9952975a6c86a9d1a9ae64736f6c63430008040033",
  "linkReferences": {},
  "deployedLinkReferences": {}
}