{
  "_format": "hh-sol-artifact-1",
  "contractName": "RentableNFT",
  "sourceName": "contracts/RentableNFT.sol",
  "abi": [
    {
      "inputs": [],
      "stateMutability": "nonpayable",
      "type": "constructor"
    },
    {
      "anonymous": false,
      "inputs": [
        {
          "indexed": true,
          "internalType": "address",
          "name": "owner",
          "type": "address"
        },
        {
          "indexed": true,
          "internalType": "address",
          "name": "approved",
          "type": "address"
        },
        {
          "indexed": true,
          "internalType": "uint256",
          "name": "tokenId",
          "type": "uint256"
        }
      ],
      "name": "Approval",
      "type": "event"
    },
    {
      "anonymous": false,
      "inputs": [
        {
          "indexed": true,
          "internalType": "address",
          "name": "owner",
          "type": "address"
        },
        {
          "indexed": true,
          "internalType": "address",
          "name": "operator",
          "type": "address"
        },
        {
          "indexed": false,
          "internalType": "bool",
          "name": "approved",
          "type": "bool"
        }
      ],
      "name": "ApprovalForAll",
      "type": "event"
    },
    {
      "anonymous": false,
      "inputs": [
        {
          "indexed": true,
          "internalType": "address",
          "name": "from",
          "type": "address"
        },
        {
          "indexed": true,
          "internalType": "address",
          "name": "to",
          "type": "address"
        },
        {
          "indexed": true,
          "internalType": "uint256",
          "name": "tokenId",
          "type": "uint256"
        }
      ],
      "name": "Transfer",
      "type": "event"
    },
    {
      "anonymous": false,
      "inputs": [
        {
          "indexed": true,
          "internalType": "uint256",
          "name": "tokenId",
          "type": "uint256"
        },
        {
          "indexed": true,
          "internalType": "address",
          "name": "user",
          "type": "address"
        },
        {
          "indexed": false,
          "internalType": "uint64",
          "name": "expires",
          "type": "uint64"
        }
      ],
      "name": "UpdateUser",
      "type": "event"
    },
    {
      "inputs": [
        {
          "internalType": "address",
          "name": "to",
          "type": "address"
        },
        {
          "internalType": "uint256",
          "name": "tokenId",
          "type": "uint256"
        }
      ],
      "name": "approve",
      "outputs": [],
      "stateMutability": "nonpayable",
      "type": "function"
    },
    {
      "inputs": [
        {
          "internalType": "address",
          "name": "owner",
          "type": "address"
        }
      ],
      "name": "balanceOf",
      "outputs": [
        {
          "internalType": "uint256",
          "name": "",
          "type": "uint256"
        }
      ],
      "stateMutability": "view",
      "type": "function"
    },
    {
      "inputs": [
        {
          "internalType": "uint256",
          "name": "tokenId",
          "type": "uint256"
        }
      ],
      "name": "burn",
      "outputs": [],
      "stateMutability": "nonpayable",
      "type": "function"
    },
    {
      "inputs": [
        {
          "internalType": "uint256",
          "name": "tokenId",
          "type": "uint256"
        }
      ],
      "name": "getApproved",
      "outputs": [
        {
          "internalType": "address",
          "name": "",
          "type": "address"
        }
      ],
      "stateMutability": "view",
      "type": "function"
    },
    {
      "inputs": [
        {
          "internalType": "address",
          "name": "owner",
          "type": "address"
        },
        {
          "internalType": "address",
          "name": "operator",
          "type": "address"
        }
      ],
      "name": "isApprovedForAll",
      "outputs": [
        {
          "internalType": "bool",
          "name": "",
          "type": "bool"
        }
      ],
      "stateMutability": "view",
      "type": "function"
    },
    {
      "inputs": [
        {
          "internalType": "string",
          "name": "_tokenURI",
          "type": "string"
        }
      ],
      "name": "mint",
      "outputs": [],
      "stateMutability": "nonpayable",
      "type": "function"
    },
    {
      "inputs": [],
      "name": "name",
      "outputs": [
        {
          "internalType": "string",
          "name": "",
          "type": "string"
        }
      ],
      "stateMutability": "view",
      "type": "function"
    },
    {
      "inputs": [
        {
          "internalType": "uint256",
          "name": "tokenId",
          "type": "uint256"
        }
      ],
      "name": "ownerOf",
      "outputs": [
        {
          "internalType": "address",
          "name": "",
          "type": "address"
        }
      ],
      "stateMutability": "view",
      "type": "function"
    },
    {
      "inputs": [
        {
          "internalType": "address",
          "name": "from",
          "type": "address"
        },
        {
          "internalType": "address",
          "name": "to",
          "type": "address"
        },
        {
          "internalType": "uint256",
          "name": "tokenId",
          "type": "uint256"
        }
      ],
      "name": "safeTransferFrom",
      "outputs": [],
      "stateMutability": "nonpayable",
      "type": "function"
    },
    {
      "inputs": [
        {
          "internalType": "address",
          "name": "from",
          "type": "address"
        },
        {
          "internalType": "address",
          "name": "to",
          "type": "address"
        },
        {
          "internalType": "uint256",
          "name": "tokenId",
          "type": "uint256"
        },
        {
          "internalType": "bytes",
          "name": "data",
          "type": "bytes"
        }
      ],
      "name": "safeTransferFrom",
      "outputs": [],
      "stateMutability": "nonpayable",
      "type": "function"
    },
    {
      "inputs": [
        {
          "internalType": "address",
          "name": "operator",
          "type": "address"
        },
        {
          "internalType": "bool",
          "name": "approved",
          "type": "bool"
        }
      ],
      "name": "setApprovalForAll",
      "outputs": [],
      "stateMutability": "nonpayable",
      "type": "function"
    },
    {
      "inputs": [
        {
          "internalType": "uint256",
          "name": "tokenId",
          "type": "uint256"
        },
        {
          "internalType": "address",
          "name": "user",
          "type": "address"
        },
        {
          "internalType": "uint64",
          "name": "expires",
          "type": "uint64"
        }
      ],
      "name": "setUser",
      "outputs": [],
      "stateMutability": "nonpayable",
      "type": "function"
    },
    {
      "inputs": [
        {
          "internalType": "bytes4",
          "name": "interfaceId",
          "type": "bytes4"
        }
      ],
      "name": "supportsInterface",
      "outputs": [
        {
          "internalType": "bool",
          "name": "",
          "type": "bool"
        }
      ],
      "stateMutability": "view",
      "type": "function"
    },
    {
      "inputs": [],
      "name": "symbol",
      "outputs": [
        {
          "internalType": "string",
          "name": "",
          "type": "string"
        }
      ],
      "stateMutability": "view",
      "type": "function"
    },
    {
      "inputs": [
        {
          "internalType": "uint256",
          "name": "tokenId",
          "type": "uint256"
        }
      ],
      "name": "tokenURI",
      "outputs": [
        {
          "internalType": "string",
          "name": "",
          "type": "string"
        }
      ],
      "stateMutability": "view",
      "type": "function"
    },
    {
      "inputs": [
        {
          "internalType": "address",
          "name": "from",
          "type": "address"
        },
        {
          "internalType": "address",
          "name": "to",
          "type": "address"
        },
        {
          "internalType": "uint256",
          "name": "tokenId",
          "type": "uint256"
        }
      ],
      "name": "transferFrom",
      "outputs": [],
      "stateMutability": "nonpayable",
      "type": "function"
    },
    {
      "inputs": [
        {
          "internalType": "uint256",
          "name": "tokenId",
          "type": "uint256"
        }
      ],
      "name": "userExpires",
      "outputs": [
        {
          "internalType": "uint256",
          "name": "",
          "type": "uint256"
        }
      ],
      "stateMutability": "view",
      "type": "function"
    },
    {
      "inputs": [
        {
          "internalType": "uint256",
          "name": "tokenId",
          "type": "uint256"
        }
      ],
      "name": "userOf",
      "outputs": [
        {
          "internalType": "address",
          "name": "",
          "type": "address"
        }
      ],
      "stateMutability": "view",
      "type": "function"
    }
  ],
  "bytecode": "0x60806040523480156200001157600080fd5b50604080518082018252600b81526a14995b9d18589b1953919560aa1b6020808301918252835180850190945260078452661491539513919560ca1b90840152815191929183918391620000689160009162000089565b5080516200007e90600190602084019062000089565b50505050506200016c565b82805462000097906200012f565b90600052602060002090601f016020900481019282620000bb576000855562000106565b82601f10620000d657805160ff191683800117855562000106565b8280016001018555821562000106579182015b8281111562000106578251825591602001919060010190620000e9565b506200011492915062000118565b5090565b5b8082111562000114576000815560010162000119565b600181811c908216806200014457607f821691505b602082108114156200016657634e487b7160e01b600052602260045260246000fd5b50919050565b611ad5806200017c6000396000f3fe608060405234801561001057600080fd5b50600436106101165760003560e01c80638fc88c48116100a2578063c2f1f14a11610071578063c2f1f14a14610264578063c87b56dd14610277578063d85d3d271461028a578063e030565e1461029d578063e985e9c5146102b057600080fd5b80638fc88c481461020557806395d89b4114610236578063a22cb4651461023e578063b88d4fde1461025157600080fd5b806323b872dd116100e957806323b872dd1461019857806342842e0e146101ab57806342966c68146101be5780636352211e146101d157806370a08231146101e457600080fd5b806301ffc9a71461011b57806306fdde0314610143578063081812fc14610158578063095ea7b314610183575b600080fd5b61012e610129366004611757565b6102ec565b60405190151581526020015b60405180910390f35b61014b610317565b60405161013a91906118d0565b61016b6101663660046117d5565b6103a9565b6040516001600160a01b03909116815260200161013a565b61019661019136600461172e565b6103d0565b005b6101966101a6366004611640565b6104eb565b6101966101b9366004611640565b61051c565b6101966101cc3660046117d5565b610537565b61016b6101df3660046117d5565b610543565b6101f76101f23660046115f4565b6105a3565b60405190815260200161013a565b6101f76102133660046117d5565b600090815260076020526040902054600160a01b900467ffffffffffffffff1690565b61014b610629565b61019661024c3660046116f4565b610638565b61019661025f36600461167b565b610647565b61016b6102723660046117d5565b61067f565b61014b6102853660046117d5565b6106cf565b61019661029836600461178f565b6107e0565b6101966102ab3660046117ed565b61080f565b61012e6102be36600461160e565b6001600160a01b03918216600090815260056020908152604080832093909416825291909152205460ff1690565b60006001600160e01b03198216632b424ad760e21b1480610311575061031182610901565b92915050565b60606000805461032690611a22565b80601f016020809104026020016040519081016040528092919081815260200182805461035290611a22565b801561039f5780601f106103745761010080835404028352916020019161039f565b820191906000526020600020905b81548152906001019060200180831161038257829003601f168201915b5050505050905090565b60006103b482610951565b506000908152600460205260409020546001600160a01b031690565b60006103db82610543565b9050806001600160a01b0316836001600160a01b0316141561044e5760405162461bcd60e51b815260206004820152602160248201527f4552433732313a20617070726f76616c20746f2063757272656e74206f776e656044820152603960f91b60648201526084015b60405180910390fd5b336001600160a01b038216148061046a575061046a81336102be565b6104dc5760405162461bcd60e51b815260206004820152603d60248201527f4552433732313a20617070726f76652063616c6c6572206973206e6f7420746f60448201527f6b656e206f776e6572206f7220617070726f76656420666f7220616c6c0000006064820152608401610445565b6104e683836109b0565b505050565b6104f53382610a1e565b6105115760405162461bcd60e51b8152600401610445906118e3565b6104e6838383610a9c565b6104e683838360405180602001604052806000815250610647565b61054081610c0d565b50565b6000818152600260205260408120546001600160a01b0316806103115760405162461bcd60e51b8152602060048201526018602482015277115490cdcc8c4e881a5b9d985b1a59081d1bdad95b88125160421b6044820152606401610445565b60006001600160a01b03821661060d5760405162461bcd60e51b815260206004820152602960248201527f4552433732313a2061646472657373207a65726f206973206e6f7420612076616044820152683634b21037bbb732b960b91b6064820152608401610445565b506001600160a01b031660009081526003602052604090205490565b60606001805461032690611a22565b610643338383610c4d565b5050565b6106513383610a1e565b61066d5760405162461bcd60e51b8152600401610445906118e3565b61067984848484610d1c565b50505050565b60008181526007602052604081205442600160a01b90910467ffffffffffffffff16106106c257506000908152600760205260409020546001600160a01b031690565b506000919050565b919050565b60606106da82610951565b600082815260066020526040812080546106f390611a22565b80601f016020809104026020016040519081016040528092919081815260200182805461071f90611a22565b801561076c5780601f106107415761010080835404028352916020019161076c565b820191906000526020600020905b81548152906001019060200180831161074f57829003601f168201915b50505050509050600061078a60408051602081019091526000815290565b905080516000141561079d575092915050565b8151156107cf5780826040516020016107b7929190611864565b60405160208183030381529060405292505050919050565b6107d884610d4f565b949350505050565b6107ee600880546001019055565b60006107f960085490565b90506108053382610dc3565b6106438183610ddd565b6108193384610a1e565b61087f5760405162461bcd60e51b815260206004820152603160248201527f4552433732313a207472616e736665722063616c6c6572206973206e6f74206f6044820152701ddb995c881b9bdc88185c1c1c9bdd9959607a1b6064820152608401610445565b60008381526007602090815260409182902080546001600160a01b0386166001600160e01b03199091168117600160a01b67ffffffffffffffff871690810291909117835593519384529092909186917f4e06b4e7000e659094299b3533b47b6aa8ad048e95e872d23d1f4ee55af89cfe91015b60405180910390a350505050565b60006001600160e01b031982166380ac58cd60e01b148061093257506001600160e01b03198216635b5e139f60e01b145b8061031157506301ffc9a760e01b6001600160e01b0319831614610311565b6000818152600260205260409020546001600160a01b03166105405760405162461bcd60e51b8152602060048201526018602482015277115490cdcc8c4e881a5b9d985b1a59081d1bdad95b88125160421b6044820152606401610445565b600081815260046020526040902080546001600160a01b0319166001600160a01b03841690811790915581906109e582610543565b6001600160a01b03167f8c5be1e5ebec7d5bd14f71427d1e84f3dd0314c0f7b2291e5b200ac8c7c3b92560405160405180910390a45050565b600080610a2a83610543565b9050806001600160a01b0316846001600160a01b03161480610a7157506001600160a01b0380821660009081526005602090815260408083209388168352929052205460ff165b806107d85750836001600160a01b0316610a8a846103a9565b6001600160a01b031614949350505050565b826001600160a01b0316610aaf82610543565b6001600160a01b031614610ad55760405162461bcd60e51b815260040161044590611982565b6001600160a01b038216610b375760405162461bcd60e51b8152602060048201526024808201527f4552433732313a207472616e7366657220746f20746865207a65726f206164646044820152637265737360e01b6064820152608401610445565b610b448383836001610e77565b826001600160a01b0316610b5782610543565b6001600160a01b031614610b7d5760405162461bcd60e51b815260040161044590611982565b600081815260046020908152604080832080546001600160a01b03199081169091556001600160a01b0387811680865260038552838620805460001901905590871680865283862080546001019055868652600290945282852080549092168417909155905184937fddf252ad1be2c89b69c2b068fc378daa952ba7f163c4a11628f55a4df523b3ef91a4505050565b610c1681610f0d565b60008181526006602052604090208054610c2f90611a22565b15905061054057600081815260066020526040812061054091611494565b816001600160a01b0316836001600160a01b03161415610caf5760405162461bcd60e51b815260206004820152601960248201527f4552433732313a20617070726f766520746f2063616c6c6572000000000000006044820152606401610445565b6001600160a01b03838116600081815260056020908152604080832094871680845294825291829020805460ff191686151590811790915591519182527f17307eab39ab6107e8899845ad3d59bd9653f200f220920489ca2b5937696c31910160405180910390a3505050565b610d27848484610a9c565b610d3384848484610fb0565b6106795760405162461bcd60e51b815260040161044590611930565b6060610d5a82610951565b6000610d7160408051602081019091526000815290565b90506000815111610d915760405180602001604052806000815250610dbc565b80610d9b846110bd565b604051602001610dac929190611864565b6040516020818303038152906040525b9392505050565b610643828260405180602001604052806000815250611168565b6000828152600260205260409020546001600160a01b0316610e585760405162461bcd60e51b815260206004820152602e60248201527f45524337323155524953746f726167653a2055524920736574206f66206e6f6e60448201526d32bc34b9ba32b73a103a37b5b2b760911b6064820152608401610445565b600082815260066020908152604090912082516104e6928401906114ce565b610e838484848461119b565b826001600160a01b0316846001600160a01b031614158015610ebb57506000828152600760205260409020546001600160a01b031615155b1561067957600082815260076020908152604080832080546001600160e01b03191690555182815284917f4e06b4e7000e659094299b3533b47b6aa8ad048e95e872d23d1f4ee55af89cfe91016108f3565b6000610f1882610543565b9050610f28816000846001610e77565b610f3182610543565b600083815260046020908152604080832080546001600160a01b03199081169091556001600160a01b0385168085526003845282852080546000190190558785526002909352818420805490911690555192935084927fddf252ad1be2c89b69c2b068fc378daa952ba7f163c4a11628f55a4df523b3ef908390a45050565b60006001600160a01b0384163b156110b257604051630a85bd0160e11b81526001600160a01b0385169063150b7a0290610ff4903390899088908890600401611893565b602060405180830381600087803b15801561100e57600080fd5b505af192505050801561103e575060408051601f3d908101601f1916820190925261103b91810190611773565b60015b611098573d80801561106c576040519150601f19603f3d011682016040523d82523d6000602084013e611071565b606091505b5080516110905760405162461bcd60e51b815260040161044590611930565b805181602001fd5b6001600160e01b031916630a85bd0160e11b1490506107d8565b506001949350505050565b606060006110ca83611223565b600101905060008167ffffffffffffffff8111156110f857634e487b7160e01b600052604160045260246000fd5b6040519080825280601f01601f191660200182016040528015611122576020820181803683370190505b5090508181016020015b600019016f181899199a1a9b1b9c1cb0b131b232b360811b600a86061a8153600a850494508461115b57611160565b61112c565b509392505050565b61117283836112fb565b61117f6000848484610fb0565b6104e65760405162461bcd60e51b815260040161044590611930565b6001811115610679576001600160a01b038416156111e1576001600160a01b038416600090815260036020526040812080548392906111db9084906119df565b90915550505b6001600160a01b03831615610679576001600160a01b038316600090815260036020526040812080548392906112189084906119c7565b909155505050505050565b60008072184f03e93ff9f4daa797ed6e38ed64bf6a1f0160401b83106112625772184f03e93ff9f4daa797ed6e38ed64bf6a1f0160401b830492506040015b6d04ee2d6d415b85acef8100000000831061128e576d04ee2d6d415b85acef8100000000830492506020015b662386f26fc1000083106112ac57662386f26fc10000830492506010015b6305f5e10083106112c4576305f5e100830492506008015b61271083106112d857612710830492506004015b606483106112ea576064830492506002015b600a83106103115760010192915050565b6001600160a01b0382166113515760405162461bcd60e51b815260206004820181905260248201527f4552433732313a206d696e7420746f20746865207a65726f20616464726573736044820152606401610445565b6000818152600260205260409020546001600160a01b0316156113b65760405162461bcd60e51b815260206004820152601c60248201527f4552433732313a20746f6b656e20616c7265616479206d696e746564000000006044820152606401610445565b6113c4600083836001610e77565b6000818152600260205260409020546001600160a01b0316156114295760405162461bcd60e51b815260206004820152601c60248201527f4552433732313a20746f6b656e20616c7265616479206d696e746564000000006044820152606401610445565b6001600160a01b038216600081815260036020908152604080832080546001019055848352600290915280822080546001600160a01b0319168417905551839291907fddf252ad1be2c89b69c2b068fc378daa952ba7f163c4a11628f55a4df523b3ef908290a45050565b5080546114a090611a22565b6000825580601f106114b0575050565b601f0160209004906000526020600020908101906105409190611552565b8280546114da90611a22565b90600052602060002090601f0160209004810192826114fc5760008555611542565b82601f1061151557805160ff1916838001178555611542565b82800160010185558215611542579182015b82811115611542578251825591602001919060010190611527565b5061154e929150611552565b5090565b5b8082111561154e5760008155600101611553565b600067ffffffffffffffff8084111561158257611582611a73565b604051601f8501601f19908116603f011681019082821181831017156115aa576115aa611a73565b816040528093508581528686860111156115c357600080fd5b858560208301376000602087830101525050509392505050565b80356001600160a01b03811681146106ca57600080fd5b600060208284031215611605578081fd5b610dbc826115dd565b60008060408385031215611620578081fd5b611629836115dd565b9150611637602084016115dd565b90509250929050565b600080600060608486031215611654578081fd5b61165d846115dd565b925061166b602085016115dd565b9150604084013590509250925092565b60008060008060808587031215611690578081fd5b611699856115dd565b93506116a7602086016115dd565b925060408501359150606085013567ffffffffffffffff8111156116c9578182fd5b8501601f810187136116d9578182fd5b6116e887823560208401611567565b91505092959194509250565b60008060408385031215611706578182fd5b61170f836115dd565b915060208301358015158114611723578182fd5b809150509250929050565b60008060408385031215611740578182fd5b611749836115dd565b946020939093013593505050565b600060208284031215611768578081fd5b8135610dbc81611a89565b600060208284031215611784578081fd5b8151610dbc81611a89565b6000602082840312156117a0578081fd5b813567ffffffffffffffff8111156117b6578182fd5b8201601f810184136117c6578182fd5b6107d884823560208401611567565b6000602082840312156117e6578081fd5b5035919050565b600080600060608486031215611801578283fd5b83359250611811602085016115dd565b9150604084013567ffffffffffffffff8116811461182d578182fd5b809150509250925092565b600081518084526118508160208601602086016119f6565b601f01601f19169290920160200192915050565b600083516118768184602088016119f6565b83519083019061188a8183602088016119f6565b01949350505050565b6001600160a01b03858116825284166020820152604081018390526080606082018190526000906118c690830184611838565b9695505050505050565b602081526000610dbc6020830184611838565b6020808252602d908201527f4552433732313a2063616c6c6572206973206e6f7420746f6b656e206f776e6560408201526c1c881bdc88185c1c1c9bdd9959609a1b606082015260800190565b60208082526032908201527f4552433732313a207472616e7366657220746f206e6f6e20455243373231526560408201527131b2b4bb32b91034b6b83632b6b2b73a32b960711b606082015260800190565b60208082526025908201527f4552433732313a207472616e736665722066726f6d20696e636f72726563742060408201526437bbb732b960d91b606082015260800190565b600082198211156119da576119da611a5d565b500190565b6000828210156119f1576119f1611a5d565b500390565b60005b83811015611a115781810151838201526020016119f9565b838111156106795750506000910152565b600181811c90821680611a3657607f821691505b60208210811415611a5757634e487b7160e01b600052602260045260246000fd5b50919050565b634e487b7160e01b600052601160045260246000fd5b634e487b7160e01b600052604160045260246000fd5b6001600160e01b03198116811461054057600080fdfea2646970667358221220a0203fcaf687816713ae1f8877171e444245af62b9138236729e24b76f7eaba464736f6c63430008040033",
  "linkReferences": {},
  "deployedLinkReferences": {}
}