{
  "_format": "hh-sol-artifact-1",
  "contractName": "NFTMarket",
  "sourceName": "contracts/Market.sol",
  "abi": [
    {
      "inputs": [],
      "stateMutability": "nonpayable",
      "type": "constructor"
    },
    {
      "anonymous": false,
      "inputs": [
        {
          "indexed": true,
          "internalType": "uint256",
          "name": "itemId",
          "type": "uint256"
        },
        {
          "indexed": true,
          "internalType": "address",
          "name": "nftContract",
          "type": "address"
        },
        {
          "indexed": true,
          "internalType": "uint256",
          "name": "tokenId",
          "type": "uint256"
        },
        {
          "indexed": false,
          "internalType": "address",
          "name": "seller",
          "type": "address"
        },
        {
          "indexed": false,
          "internalType": "address",
          "name": "owner",
          "type": "address"
        },
        {
          "indexed": false,
          "internalType": "uint256",
          "name": "price",
          "type": "uint256"
        },
        {
          "indexed": false,
          "internalType": "bool",
          "name": "sold",
          "type": "bool"
        }
      ],
      "name": "MarketItemCreated",
      "type": "event"
    },
    {
      "inputs": [
        {
          "internalType": "address",
          "name": "nftContract",
          "type": "address"
        },
        {
          "internalType": "uint256",
          "name": "tokenId",
          "type": "uint256"
        },
        {
          "internalType": "uint256",
          "name": "price",
          "type": "uint256"
        }
      ],
      "name": "createMarketItem",
      "outputs": [
        {
          "internalType": "uint256",
          "name": "",
          "type": "uint256"
        }
      ],
      "stateMutability": "payable",
      "type": "function"
    },
    {
      "inputs": [
        {
          "internalType": "address",
          "name": "nftContract",
          "type": "address"
        },
        {
          "internalType": "uint256",
          "name": "itemId",
          "type": "uint256"
        }
      ],
      "name": "createMarketSale",
      "outputs": [],
      "stateMutability": "payable",
      "type": "function"
    },
    {
      "inputs": [],
      "name": "fetchItemsCreated",
      "outputs": [
        {
          "components": [
            {
              "internalType": "uint256",
              "name": "itemId",
              "type": "uint256"
            },
            {
              "internalType": "address",
              "name": "nftContract",
              "type": "address"
            },
            {
              "internalType": "uint256",
              "name": "tokenId",
              "type": "uint256"
            },
            {
              "internalType": "address payable",
              "name": "seller",
              "type": "address"
            },
            {
              "internalType": "address payable",
              "name": "owner",
              "type": "address"
            },
            {
              "internalType": "uint256",
              "name": "price",
              "type": "uint256"
            },
            {
              "internalType": "bool",
              "name": "sold",
              "type": "bool"
            }
          ],
          "internalType": "struct NFTMarket.MarketItem[]",
          "name": "",
          "type": "tuple[]"
        }
      ],
      "stateMutability": "view",
      "type": "function"
    },
    {
      "inputs": [],
      "name": "fetchMarketItems",
      "outputs": [
        {
          "components": [
            {
              "internalType": "uint256",
              "name": "itemId",
              "type": "uint256"
            },
            {
              "internalType": "address",
              "name": "nftContract",
              "type": "address"
            },
            {
              "internalType": "uint256",
              "name": "tokenId",
              "type": "uint256"
            },
            {
              "internalType": "address payable",
              "name": "seller",
              "type": "address"
            },
            {
              "internalType": "address payable",
              "name": "owner",
              "type": "address"
            },
            {
              "internalType": "uint256",
              "name": "price",
              "type": "uint256"
            },
            {
              "internalType": "bool",
              "name": "sold",
              "type": "bool"
            }
          ],
          "internalType": "struct NFTMarket.MarketItem[]",
          "name": "",
          "type": "tuple[]"
        }
      ],
      "stateMutability": "view",
      "type": "function"
    },
    {
      "inputs": [],
      "name": "fetchMyNFTs",
      "outputs": [
        {
          "components": [
            {
              "internalType": "uint256",
              "name": "itemId",
              "type": "uint256"
            },
            {
              "internalType": "address",
              "name": "nftContract",
              "type": "address"
            },
            {
              "internalType": "uint256",
              "name": "tokenId",
              "type": "uint256"
            },
            {
              "internalType": "address payable",
              "name": "seller",
              "type": "address"
            },
            {
              "internalType": "address payable",
              "name": "owner",
              "type": "address"
            },
            {
              "internalType": "uint256",
              "name": "price",
              "type": "uint256"
            },
            {
              "internalType": "bool",
              "name": "sold",
              "type": "bool"
            }
          ],
          "internalType": "struct NFTMarket.MarketItem[]",
          "name": "",
          "type": "tuple[]"
        }
      ],
      "stateMutability": "view",
      "type": "function"
    },
    {
      "inputs": [],
      "name": "fetchUnSoldMarketItems",
      "outputs": [
        {
          "components": [
            {
              "internalType": "uint256",
              "name": "itemId",
              "type": "uint256"
            },
            {
              "internalType": "address",
              "name": "nftContract",
              "type": "address"
            },
            {
              "internalType": "uint256",
              "name": "tokenId",
              "type": "uint256"
            },
            {
              "internalType": "address payable",
              "name": "seller",
              "type": "address"
            },
            {
              "internalType": "address payable",
              "name": "owner",
              "type": "address"
            },
            {
              "internalType": "uint256",
              "name": "price",
              "type": "uint256"
            },
            {
              "internalType": "bool",
              "name": "sold",
              "type": "bool"
            }
          ],
          "internalType": "struct NFTMarket.MarketItem[]",
          "name": "",
          "type": "tuple[]"
        }
      ],
      "stateMutability": "view",
      "type": "function"
    },
    {
      "inputs": [
        {
          "internalType": "address",
          "name": "receiver",
          "type": "address"
        }
      ],
      "name": "getAddressCredits",
      "outputs": [
        {
          "internalType": "uint256",
          "name": "",
          "type": "uint256"
        }
      ],
      "stateMutability": "view",
      "type": "function"
    },
    {
      "inputs": [],
      "name": "getSalesFeeBasisPoints",
      "outputs": [
        {
          "internalType": "uint256",
          "name": "",
          "type": "uint256"
        }
      ],
      "stateMutability": "view",
      "type": "function"
    },
    {
      "inputs": [
        {
          "internalType": "address",
          "name": "nftContract",
          "type": "address"
        },
        {
          "internalType": "uint256",
          "name": "itemId",
          "type": "uint256"
        }
      ],
      "name": "unListMarketItem",
      "outputs": [],
      "stateMutability": "payable",
      "type": "function"
    },
    {
      "inputs": [],
      "name": "withdrawCredits",
      "outputs": [],
      "stateMutability": "nonpayable",
      "type": "function"
    }
  ],
  "bytecode": "0x608060405260fa60045561271060055534801561001b57600080fd5b506001600055600380546001600160a01b031916331790556111f7806100426000396000f3fe6080604052600436106100915760003560e01c8063717f6dfb11610059578063717f6dfb146101215780639cc1809714610136578063c23b139e1461016c578063e4e6d5181461017f578063f064c32e1461019457600080fd5b80630f08efe014610096578063202e3740146100c157806323562424146100d6578063382edbcf146100eb57806358eb2df514610100575b600080fd5b3480156100a257600080fd5b506100ab6101a9565b6040516100b8919061108e565b60405180910390f35b3480156100cd57600080fd5b506100ab610303565b6100e96100e4366004611033565b6104f2565b005b3480156100f757600080fd5b506100ab61060d565b61011361010e36600461105c565b610806565b6040519081526020016100b8565b34801561012d57600080fd5b506100e9610a1b565b34801561014257600080fd5b50610113610151366004611019565b6001600160a01b031660009081526007602052604090205490565b6100e961017a366004611033565b610b30565b34801561018b57600080fd5b50600454610113565b3480156101a057600080fd5b506100ab610d50565b606060006101b660015490565b90506000808267ffffffffffffffff8111156101e257634e487b7160e01b600052604160045260246000fd5b60405190808252806020026020018201604052801561021b57816020015b610208610fc1565b8152602001906001900390816102005790505b50905060005b838110156102fb576000610236826001611122565b600081815260066020818152604092839020835160e0810185528154815260018201546001600160a01b039081169382019390935260028201549481019490945260038101548216606085015260048101549091166080840152600581015460a08401529081015460ff16151560c08301528551929350918590879081106102ce57634e487b7160e01b600052603260045260246000fd5b60209081029190910101526102e4600186611122565b9450505080806102f390611190565b915050610221565b509392505050565b6060600061031060015490565b905060008060005b83811015610373573360066000610330846001611122565b81526020810191909152604001600020600401546001600160a01b031614156103615761035e600184611122565b92505b8061036b81611190565b915050610318565b5060008267ffffffffffffffff81111561039d57634e487b7160e01b600052604160045260246000fd5b6040519080825280602002602001820160405280156103d657816020015b6103c3610fc1565b8152602001906001900390816103bb5790505b50905060005b848110156104e95733600660006103f4846001611122565b81526020810191909152604001600020600401546001600160a01b031614156104d7576000610424826001611122565b600081815260066020818152604092839020835160e0810185528154815260018201546001600160a01b039081169382019390935260028201549481019490945260038101548216606085015260048101549091166080840152600581015460a08401529081015460ff16151560c08301528551929350918590879081106104bc57634e487b7160e01b600052603260045260246000fd5b60209081029190910101526104d2600186611122565b945050505b806104e181611190565b9150506103dc565b50949350505050565b6104fa610f36565b6000818152600660205260409020600301546001600160a01b031633146105685760405162461bcd60e51b815260206004820152601e60248201527f4f6e6c792073656c6c6572206d617920756e6c69737420616e206974656d000060448201526064015b60405180910390fd5b600081815260066020526040908190206002810154600491820180546001600160a01b0319163390811790915592516323b872dd60e01b815230928101929092526024820192909252604481018290526001600160a01b038416906323b872dd90606401600060405180830381600087803b1580156105e657600080fd5b505af11580156105fa573d6000803e3d6000fd5b50505050506106096001600055565b5050565b6060600061061a60015490565b905060008060005b838110156106ac5760066000610639836001611122565b815260208101919091526040016000206006015460ff1615801561068757503060066000610668846001611122565b81526020810191909152604001600020600401546001600160a01b0316145b1561069a57610697600184611122565b92505b806106a481611190565b915050610622565b5060008267ffffffffffffffff8111156106d657634e487b7160e01b600052604160045260246000fd5b60405190808252806020026020018201604052801561070f57816020015b6106fc610fc1565b8152602001906001900390816106f45790505b50905060005b848110156104e957600061072a826001611122565b6000818152600660205260409020600401549091506001600160a01b03163014156107f357600081815260066020818152604092839020835160e0810185528154815260018201546001600160a01b039081169382019390935260028201549481019490945260038101548216606085015260048101549091166080840152600581015460a08401529081015460ff16151560c083015284519091908590879081106107e657634e487b7160e01b600052603260045260246000fd5b6020026020010181905250505b50806107fe81611190565b915050610715565b6000610810610f36565b600082116108605760405162461bcd60e51b815260206004820152601c60248201527f5072696365206d757374206265206174206c6561737420312077656900000000604482015260640161055f565b61086e600180546001019055565b600061087960015490565b6040805160e0810182528281526001600160a01b0380891660208084018281528486018b81523360608701818152306080890181815260a08a018f8152600060c08c018181528e82526006998a90528d82209c518d55975160018d018054918d166001600160a01b0319928316179055965160028d0155935160038c018054918c16918816919091179055905160048b01805491909a1695169490941790975591516005880155915195909201805495151560ff199096169590951790945593519495508894909386937f045dfa01dcba2b36aba1d3dc4a874f4b0c5d2fbeb8d2c4b34a7d88c8d8f929d19361099993919290918b91906001600160a01b0394851681529290931660208301526040820152901515606082015260800190565b60405180910390a46040516323b872dd60e01b8152336004820152306024820152604481018590526001600160a01b038616906323b872dd90606401600060405180830381600087803b1580156109ef57600080fd5b505af1158015610a03573d6000803e3d6000fd5b50929350505050610a146001600055565b9392505050565b3360009081526007602052604090205480610a8f5760405162461bcd60e51b815260206004820152602e60248201527f546865726520617265206e6f206372656469747320696e20746869732072656360448201526d697069656e74206164647265737360901b606482015260840161055f565b80471015610af55760405162461bcd60e51b815260206004820152602d60248201527f546865726520617265206e6f206372656469747320696e207468697320636f6e60448201526c7472616374206164647265737360981b606482015260840161055f565b336000818152600760205260408082208290555183156108fc0291849190818181858888f19350505050158015610609573d6000803e3d6000fd5b610b38610f36565b6000818152600660205260409020600581015460028201546004909201549091906001600160a01b03163014610bbc5760405162461bcd60e51b815260206004820152602360248201527f54686973206974656d206973206e6f7420617661696c61626c6520666f722073604482015262616c6560e81b606482015260840161055f565b813414610c33576040805162461bcd60e51b81526020600482015260248101919091527f506c65617365207375626d6974207468652061736b696e67207072696365206960448201527f6e206f7264657220746f20636f6d706c65746520746865207075726368617365606482015260840161055f565b6000838152600660205260408120600301546005546004546001600160a01b039092169291610c62908661115a565b610c6c919061113a565b90506000610c7a8286611179565b9050610c868382610f90565b60008681526006602081905260409091206004810180546001600160a01b0319163317905501805460ff19166001179055610cc5600280546001019055565b600354610cdb906001600160a01b031683610f90565b6040516323b872dd60e01b8152306004820152336024820152604481018590526001600160a01b038816906323b872dd90606401600060405180830381600087803b158015610d2957600080fd5b505af1158015610d3d573d6000803e3d6000fd5b5050505050505050506106096001600055565b60606000610d5d60015490565b905060008060005b83811015610dc0573360066000610d7d846001611122565b81526020810191909152604001600020600301546001600160a01b03161415610dae57610dab600184611122565b92505b80610db881611190565b915050610d65565b5060008267ffffffffffffffff811115610dea57634e487b7160e01b600052604160045260246000fd5b604051908082528060200260200182016040528015610e2357816020015b610e10610fc1565b815260200190600190039081610e085790505b50905060005b848110156104e9573360066000610e41846001611122565b81526020810191909152604001600020600301546001600160a01b03161415610f24576000610e71826001611122565b600081815260066020818152604092839020835160e0810185528154815260018201546001600160a01b039081169382019390935260028201549481019490945260038101548216606085015260048101549091166080840152600581015460a08401529081015460ff16151560c0830152855192935091859087908110610f0957634e487b7160e01b600052603260045260246000fd5b6020908102919091010152610f1f600186611122565b945050505b80610f2e81611190565b915050610e29565b60026000541415610f895760405162461bcd60e51b815260206004820152601f60248201527f5265656e7472616e637947756172643a207265656e7472616e742063616c6c00604482015260640161055f565b6002600055565b6001600160a01b03821660009081526007602052604081208054839290610fb8908490611122565b90915550505050565b6040805160e081018252600080825260208201819052918101829052606081018290526080810182905260a0810182905260c081019190915290565b80356001600160a01b038116811461101457600080fd5b919050565b60006020828403121561102a578081fd5b610a1482610ffd565b60008060408385031215611045578081fd5b61104e83610ffd565b946020939093013593505050565b600080600060608486031215611070578081fd5b61107984610ffd565b95602085013595506040909401359392505050565b602080825282518282018190526000919060409081850190868401855b8281101561111557815180518552868101516001600160a01b039081168887015286820151878701526060808301518216908701526080808301519091169086015260a0808201519086015260c09081015115159085015260e090930192908501906001016110ab565b5091979650505050505050565b60008219821115611135576111356111ab565b500190565b60008261115557634e487b7160e01b81526012600452602481fd5b500490565b6000816000190483118215151615611174576111746111ab565b500290565b60008282101561118b5761118b6111ab565b500390565b60006000198214156111a4576111a46111ab565b5060010190565b634e487b7160e01b600052601160045260246000fdfea2646970667358221220b1989e284d03a5323bb5cd49250c55b0940772acabfa104bbe32c5a5c2aaf3bc64736f6c63430008040033",
  "linkReferences": {},
  "deployedLinkReferences": {}
}